{
  "_format": "hh-sol-artifact-1",
  "contractName": "CalyptusHill",
  "sourceName": "contracts/CalyptusHill/CalyptusHill.sol",
  "abi": [
    {
      "inputs": [
        {
          "internalType": "address",
          "name": "_atTheTop",
          "type": "address"
        }
      ],
      "stateMutability": "payable",
      "type": "constructor"
    },
    {
      "inputs": [],
      "name": "atTheTop",
      "outputs": [
        {
          "internalType": "address",
          "name": "",
          "type": "address"
        }
      ],
      "stateMutability": "view",
      "type": "function"
    },
    {
      "inputs": [],
      "name": "bribe",
      "outputs": [
        {
          "internalType": "uint256",
          "name": "",
          "type": "uint256"
        }
      ],
      "stateMutability": "view",
      "type": "function"
    },
    {
      "inputs": [],
      "name": "owner",
      "outputs": [
        {
          "internalType": "address",
          "name": "",
          "type": "address"
        }
      ],
      "stateMutability": "view",
      "type": "function"
    },
    {
      "stateMutability": "payable",
      "type": "receive"
    }
  ],
  "bytecode": "0x608060405260405161044138038061044183398181016040528101906100259190610116565b33600260006101000a81548173ffffffffffffffffffffffffffffffffffffffff021916908373ffffffffffffffffffffffffffffffffffffffff160217905550806000806101000a81548173ffffffffffffffffffffffffffffffffffffffff021916908373ffffffffffffffffffffffffffffffffffffffff1602179055503460018190555050610143565b600080fd5b600073ffffffffffffffffffffffffffffffffffffffff82169050919050565b60006100e3826100b8565b9050919050565b6100f3816100d8565b81146100fe57600080fd5b50565b600081519050610110816100ea565b92915050565b60006020828403121561012c5761012b6100b3565b5b600061013a84828501610101565b91505092915050565b6102ef806101526000396000f3fe6080604052600436106100385760003560e01c8063176164e21461015857806337d0208c146101835780638da5cb5b146101ae57610153565b36610153576001543410158061009b5750600260009054906101000a900473ffffffffffffffffffffffffffffffffffffffff1673ffffffffffffffffffffffffffffffffffffffff163373ffffffffffffffffffffffffffffffffffffffff16145b6100a457600080fd5b60008054906101000a900473ffffffffffffffffffffffffffffffffffffffff1673ffffffffffffffffffffffffffffffffffffffff166108fc349081150290604051600060405180830381858888f1935050505015801561010a573d6000803e3d6000fd5b50336000806101000a81548173ffffffffffffffffffffffffffffffffffffffff021916908373ffffffffffffffffffffffffffffffffffffffff160217905550346001819055005b600080fd5b34801561016457600080fd5b5061016d6101d9565b60405161017a919061026a565b60405180910390f35b34801561018f57600080fd5b506101986101fd565b6040516101a5919061029e565b60405180910390f35b3480156101ba57600080fd5b506101c3610203565b6040516101d0919061026a565b60405180910390f35b60008054906101000a900473ffffffffffffffffffffffffffffffffffffffff1681565b60015481565b600260009054906101000a900473ffffffffffffffffffffffffffffffffffffffff1681565b600073ffffffffffffffffffffffffffffffffffffffff82169050919050565b600061025482610229565b9050919050565b61026481610249565b82525050565b600060208201905061027f600083018461025b565b92915050565b6000819050919050565b61029881610285565b82525050565b60006020820190506102b3600083018461028f565b9291505056fea2646970667358221220b0832fc6a7482de8bac77b6c828eebd19954db3564b77bd3a77fb2e4a1f7b82564736f6c63430008110033",
  "linkReferences": {},
  "deployedLinkReferences": {}
}