{
  "_format": "hh-sol-artifact-1",
  "contractName": "DoTrustLender",
  "sourceName": "contracts/DoNotTrust/DoTrustLender.sol",
  "abi": [
    {
      "inputs": [
        {
          "internalType": "address",
          "name": "tokenAddress",
          "type": "address"
        }
      ],
      "stateMutability": "nonpayable",
      "type": "constructor"
    },
    {
      "inputs": [],
      "name": "calyptusToken",
      "outputs": [
        {
          "internalType": "contract IERC20",
          "name": "",
          "type": "address"
        }
      ],
      "stateMutability": "view",
      "type": "function"
    },
    {
      "inputs": [
        {
          "internalType": "uint256",
          "name": "borrowAmount",
          "type": "uint256"
        },
        {
          "internalType": "address",
          "name": "borrower",
          "type": "address"
        },
        {
          "internalType": "address",
          "name": "target",
          "type": "address"
        },
        {
          "internalType": "bytes",
          "name": "data",
          "type": "bytes"
        }
      ],
      "name": "flashLoan",
      "outputs": [],
      "stateMutability": "nonpayable",
      "type": "function"
    }
  ],
  "bytecode": "0x60a060405234801561001057600080fd5b50604051610da3380380610da3833981810160405281019061003291906100d7565b60016000819055508073ffffffffffffffffffffffffffffffffffffffff1660808173ffffffffffffffffffffffffffffffffffffffff168152505050610104565b600080fd5b600073ffffffffffffffffffffffffffffffffffffffff82169050919050565b60006100a482610079565b9050919050565b6100b481610099565b81146100bf57600080fd5b50565b6000815190506100d1816100ab565b92915050565b6000602082840312156100ed576100ec610074565b5b60006100fb848285016100c2565b91505092915050565b608051610c716101326000396000818160770152818160a50152818161018401526102930152610c716000f3fe608060405234801561001057600080fd5b50600436106100365760003560e01c80633dbc89af1461003b578063ab19e0c014610059575b600080fd5b610043610075565b604051610050919061065a565b60405180910390f35b610073600480360381019061006e9190610758565b610099565b005b7f000000000000000000000000000000000000000000000000000000000000000081565b6100a1610381565b60007f000000000000000000000000000000000000000000000000000000000000000073ffffffffffffffffffffffffffffffffffffffff166370a08231306040518263ffffffff1660e01b81526004016100fc91906107ef565b602060405180830381865afa158015610119573d6000803e3d6000fd5b505050506040513d601f19601f8201168201806040525081019061013d919061081f565b905085811015610182576040517f08c379a0000000000000000000000000000000000000000000000000000000008152600401610179906108a9565b60405180910390fd5b7f000000000000000000000000000000000000000000000000000000000000000073ffffffffffffffffffffffffffffffffffffffff1663a9059cbb86886040518363ffffffff1660e01b81526004016101dd9291906108d8565b6020604051808303816000875af11580156101fc573d6000803e3d6000fd5b505050506040513d601f19601f820116820180604052508101906102209190610939565b5061028e83838080601f016020809104026020016040519081016040528093929190818152602001838380828437600081840152601f19601f820116905080830192505050505050508573ffffffffffffffffffffffffffffffffffffffff166103d090919063ffffffff16565b5060007f000000000000000000000000000000000000000000000000000000000000000073ffffffffffffffffffffffffffffffffffffffff166370a08231306040518263ffffffff1660e01b81526004016102ea91906107ef565b602060405180830381865afa158015610307573d6000803e3d6000fd5b505050506040513d601f19601f8201168201806040525081019061032b919061081f565b905081811015610370576040517f08c379a0000000000000000000000000000000000000000000000000000000008152600401610367906109b2565b60405180910390fd5b505061037a61041c565b5050505050565b6002600054036103c6576040517f08c379a00000000000000000000000000000000000000000000000000000000081526004016103bd90610a1e565b60405180910390fd5b6002600081905550565b6060610414838360006040518060400160405280601e81526020017f416464726573733a206c6f772d6c6576656c2063616c6c206661696c65640000815250610426565b905092915050565b6001600081905550565b60608247101561046b576040517f08c379a000000000000000000000000000000000000000000000000000000000815260040161046290610ab0565b60405180910390fd5b6000808673ffffffffffffffffffffffffffffffffffffffff1685876040516104949190610b41565b60006040518083038185875af1925050503d80600081146104d1576040519150601f19603f3d011682016040523d82523d6000602084013e6104d6565b606091505b50915091506104e7878383876104f3565b92505050949350505050565b6060831561055557600083510361054d5761050d85610568565b61054c576040517f08c379a000000000000000000000000000000000000000000000000000000000815260040161054390610ba4565b60405180910390fd5b5b829050610560565b61055f838361058b565b5b949350505050565b6000808273ffffffffffffffffffffffffffffffffffffffff163b119050919050565b60008251111561059e5781518083602001fd5b806040517f08c379a00000000000000000000000000000000000000000000000000000000081526004016105d29190610c19565b60405180910390fd5b600073ffffffffffffffffffffffffffffffffffffffff82169050919050565b6000819050919050565b600061062061061b610616846105db565b6105fb565b6105db565b9050919050565b600061063282610605565b9050919050565b600061064482610627565b9050919050565b61065481610639565b82525050565b600060208201905061066f600083018461064b565b92915050565b600080fd5b600080fd5b6000819050919050565b6106928161067f565b811461069d57600080fd5b50565b6000813590506106af81610689565b92915050565b60006106c0826105db565b9050919050565b6106d0816106b5565b81146106db57600080fd5b50565b6000813590506106ed816106c7565b92915050565b600080fd5b600080fd5b600080fd5b60008083601f840112610718576107176106f3565b5b8235905067ffffffffffffffff811115610735576107346106f8565b5b602083019150836001820283011115610751576107506106fd565b5b9250929050565b60008060008060006080868803121561077457610773610675565b5b6000610782888289016106a0565b9550506020610793888289016106de565b94505060406107a4888289016106de565b935050606086013567ffffffffffffffff8111156107c5576107c461067a565b5b6107d188828901610702565b92509250509295509295909350565b6107e9816106b5565b82525050565b600060208201905061080460008301846107e0565b92915050565b60008151905061081981610689565b92915050565b60006020828403121561083557610834610675565b5b60006108438482850161080a565b91505092915050565b600082825260208201905092915050565b7f4e6f7420656e6f75676820746f6b656e7320696e20706f6f6c00000000000000600082015250565b600061089360198361084c565b915061089e8261085d565b602082019050919050565b600060208201905081810360008301526108c281610886565b9050919050565b6108d28161067f565b82525050565b60006040820190506108ed60008301856107e0565b6108fa60208301846108c9565b9392505050565b60008115159050919050565b61091681610901565b811461092157600080fd5b50565b6000815190506109338161090d565b92915050565b60006020828403121561094f5761094e610675565b5b600061095d84828501610924565b91505092915050565b7f466c617368206c6f616e206861736e2774206265656e2070616964206261636b600082015250565b600061099c60208361084c565b91506109a782610966565b602082019050919050565b600060208201905081810360008301526109cb8161098f565b9050919050565b7f5265656e7472616e637947756172643a207265656e7472616e742063616c6c00600082015250565b6000610a08601f8361084c565b9150610a13826109d2565b602082019050919050565b60006020820190508181036000830152610a37816109fb565b9050919050565b7f416464726573733a20696e73756666696369656e742062616c616e636520666f60008201527f722063616c6c0000000000000000000000000000000000000000000000000000602082015250565b6000610a9a60268361084c565b9150610aa582610a3e565b604082019050919050565b60006020820190508181036000830152610ac981610a8d565b9050919050565b600081519050919050565b600081905092915050565b60005b83811015610b04578082015181840152602081019050610ae9565b60008484015250505050565b6000610b1b82610ad0565b610b258185610adb565b9350610b35818560208601610ae6565b80840191505092915050565b6000610b4d8284610b10565b915081905092915050565b7f416464726573733a2063616c6c20746f206e6f6e2d636f6e7472616374000000600082015250565b6000610b8e601d8361084c565b9150610b9982610b58565b602082019050919050565b60006020820190508181036000830152610bbd81610b81565b9050919050565b600081519050919050565b6000601f19601f8301169050919050565b6000610beb82610bc4565b610bf5818561084c565b9350610c05818560208601610ae6565b610c0e81610bcf565b840191505092915050565b60006020820190508181036000830152610c338184610be0565b90509291505056fea2646970667358221220397aca338dd3ad3d93611019d13d62bd882f2138776dbc8b9386e2076dcc35e164736f6c63430008110033",
  "linkReferences": {},
  "deployedLinkReferences": {}
}