{
  "_format": "hh-sol-artifact-1",
  "contractName": "ReenterPool",
  "sourceName": "contracts/Reenter/Reenter.sol",
  "abi": [
    {
      "inputs": [],
      "name": "deposit",
      "outputs": [],
      "stateMutability": "payable",
      "type": "function"
    },
    {
      "inputs": [
        {
          "internalType": "uint256",
          "name": "amount",
          "type": "uint256"
        }
      ],
      "name": "flashLoan",
      "outputs": [],
      "stateMutability": "nonpayable",
      "type": "function"
    },
    {
      "inputs": [],
      "name": "withdraw",
      "outputs": [],
      "stateMutability": "nonpayable",
      "type": "function"
    }
  ],
  "bytecode": "0x608060405234801561001057600080fd5b5061069f806100206000396000f3fe6080604052600436106100345760003560e01c80633ccfd60b146100395780639ab603b914610050578063d0e30db014610079575b600080fd5b34801561004557600080fd5b5061004e610083565b005b34801561005c57600080fd5b50610077600480360381019061007291906103ac565b610136565b005b610081610226565b005b60008060003373ffffffffffffffffffffffffffffffffffffffff1673ffffffffffffffffffffffffffffffffffffffff16815260200190815260200160002054905060008060003373ffffffffffffffffffffffffffffffffffffffff1673ffffffffffffffffffffffffffffffffffffffff16815260200190815260200160002081905550610133813373ffffffffffffffffffffffffffffffffffffffff1661027d90919063ffffffff16565b50565b60004790508181101561017e576040517f08c379a000000000000000000000000000000000000000000000000000000000815260040161017590610436565b60405180910390fd5b3373ffffffffffffffffffffffffffffffffffffffff166361461954836040518263ffffffff1660e01b81526004016000604051808303818588803b1580156101c657600080fd5b505af11580156101da573d6000803e3d6000fd5b505050505080471015610222576040517f08c379a0000000000000000000000000000000000000000000000000000000008152600401610219906104a2565b60405180910390fd5b5050565b346000803373ffffffffffffffffffffffffffffffffffffffff1673ffffffffffffffffffffffffffffffffffffffff168152602001908152602001600020600082825461027491906104f1565b92505081905550565b804710156102c0576040517f08c379a00000000000000000000000000000000000000000000000000000000081526004016102b790610571565b60405180910390fd5b60008273ffffffffffffffffffffffffffffffffffffffff16826040516102e6906105c2565b60006040518083038185875af1925050503d8060008114610323576040519150601f19603f3d011682016040523d82523d6000602084013e610328565b606091505b505090508061036c576040517f08c379a000000000000000000000000000000000000000000000000000000000815260040161036390610649565b60405180910390fd5b505050565b600080fd5b6000819050919050565b61038981610376565b811461039457600080fd5b50565b6000813590506103a681610380565b92915050565b6000602082840312156103c2576103c1610371565b5b60006103d084828501610397565b91505092915050565b600082825260208201905092915050565b7f4e6f7420656e6f7567682045544820696e2062616c616e636500000000000000600082015250565b60006104206019836103d9565b915061042b826103ea565b602082019050919050565b6000602082019050818103600083015261044f81610413565b9050919050565b7f466c617368206c6f616e206861736e2774206265656e2070616964206261636b600082015250565b600061048c6020836103d9565b915061049782610456565b602082019050919050565b600060208201905081810360008301526104bb8161047f565b9050919050565b7f4e487b7100000000000000000000000000000000000000000000000000000000600052601160045260246000fd5b60006104fc82610376565b915061050783610376565b925082820190508082111561051f5761051e6104c2565b5b92915050565b7f416464726573733a20696e73756666696369656e742062616c616e6365000000600082015250565b600061055b601d836103d9565b915061056682610525565b602082019050919050565b6000602082019050818103600083015261058a8161054e565b9050919050565b600081905092915050565b50565b60006105ac600083610591565b91506105b78261059c565b600082019050919050565b60006105cd8261059f565b9150819050919050565b7f416464726573733a20756e61626c6520746f2073656e642076616c75652c207260008201527f6563697069656e74206d61792068617665207265766572746564000000000000602082015250565b6000610633603a836103d9565b915061063e826105d7565b604082019050919050565b6000602082019050818103600083015261066281610626565b905091905056fea26469706673582212205b60f2f5d0b3c69161f099878a11be395e398c37b78e45dc22e694a189bff2a464736f6c63430008110033",
  "linkReferences": {},
  "deployedLinkReferences": {}
}