{
  "_format": "hh-sol-artifact-1",
  "contractName": "AlicesLock",
  "sourceName": "contracts/NoPrivacy/AlicesLock.sol",
  "abi": [
    {
      "inputs": [
        {
          "internalType": "bytes32",
          "name": "_password",
          "type": "bytes32"
        }
      ],
      "stateMutability": "nonpayable",
      "type": "constructor"
    },
    {
      "inputs": [],
      "name": "ifLocked",
      "outputs": [
        {
          "internalType": "bool",
          "name": "",
          "type": "bool"
        }
      ],
      "stateMutability": "view",
      "type": "function"
    },
    {
      "inputs": [
        {
          "internalType": "bytes32",
          "name": "_password",
          "type": "bytes32"
        }
      ],
      "name": "unlock",
      "outputs": [],
      "stateMutability": "nonpayable",
      "type": "function"
    }
  ],
  "bytecode": "0x608060405234801561001057600080fd5b5060405161025638038061025683398181016040528101906100329190610094565b60016000806101000a81548160ff02191690831515021790555080600181905550506100c1565b600080fd5b6000819050919050565b6100718161005e565b811461007c57600080fd5b50565b60008151905061008e81610068565b92915050565b6000602082840312156100aa576100a9610059565b5b60006100b88482850161007f565b91505092915050565b610186806100d06000396000f3fe608060405234801561001057600080fd5b50600436106100365760003560e01c8063ec9b5b3a1461003b578063fbe290f414610057575b600080fd5b610055600480360381019061005091906100ed565b610075565b005b61005f61009c565b60405161006c9190610135565b60405180910390f35b80600154036100995760008060006101000a81548160ff0219169083151502179055505b50565b60008060009054906101000a900460ff16905090565b600080fd5b6000819050919050565b6100ca816100b7565b81146100d557600080fd5b50565b6000813590506100e7816100c1565b92915050565b600060208284031215610103576101026100b2565b5b6000610111848285016100d8565b91505092915050565b60008115159050919050565b61012f8161011a565b82525050565b600060208201905061014a6000830184610126565b9291505056fea26469706673582212209c48aa54dd4c584c813c562e009c7e398c4158bb8e50d40978b6f0a6a07ebe7f64736f6c63430008110033",
  "linkReferences": {},
  "deployedLinkReferences": {}
}